S01300006F6D6E69636F6E74726F6C2E737265635D
S11300000C9434000C9451000C9451000C94510045
S11300100C94ED020C9451000C9451000C9451007A
S11300200C9451000C9451000C9451000C94510008
S11300300C9451000C9451000C9451000C945100F8
S11300400C9451000C9451000C9451000C945100E8
S11300500C9451000C9451000C9451000C945100D8
S11300600C9451000C94510011241FBECFEFD8E022
S1130070DEBFCDBF11E0A0E0B1E0E0E0FCE002C0F3
S113008005900D92AC30B107D9F721E0ACE0B1E0B6
S113009001C01D92AF31B207E1F70E948F000C94AA
S11300A0FE050C9400001092B40018BC17BC08950F
S11300B084B5836A84BD85B5826085BDE0EBF0E0DC
S11300C0808183628083E1EBF0E0808182608083C1
S11300D08AB1886F8AB9209A0E9453000895E1E892
S11300E0F0E080818260808308959BB1987F9BB902
S11300F020E030E090E0AC01022E02C05595479517
S11301000A94E2F740FD589A5A9A5A9858982F5FE1
S11301103F4F2830310579F7599A59980895CF936C
S1130120DF9300D000D01F92CDB7DEB7219A8AB1F9
S113013087608AB90E9458000E946F00E8E6F0E0E8
S1130140808182608083ECE6F0E080818F6380832D
S1130150789421E02B833FEF3A83198201E010E089
S11301600F2EFCE02F2EFEEF3F2EF02D80910C0180
S11301708130E1F780910A0190910B018C5D9540EB
S113018090930B0180930A018091080190910901D9
S11301908C5D95409093090180930801809104013E
S11301A0909105018C5D9540909305018093040125
S11301B080910A0190910B018C309E4F2CF4309267
S11301C00B0120920A010DC080910A0190910B014C
S11301D0853F914034F024EF31E030930B012093BC
S11301E00A0180910801909109018C309E4F2CF4F2
S11301F030920901209208010DC08091080190916C
S11302000901853F914034F024EF31E03093090136
S11302102093080180910401909105018C309E4F38
S11302202CF430920501209204010DC08091040148
S113023090910501853F914034F024EF31E03093F3
S113024005012093040180910A0190910B019923E7
S11302501CF49195819591094A97BCF48091080109
S11302609091090199231CF49195819591094A97DC
S113027064F4809104019091050199231CF49195F3
S1130280819591094A970CF443C160910A017091D8
S11302900B01719561957109882777FD8095982FD9
S11302A00E94D8044B015C0160910A0170910B011A
S11302B06090080170900901882777FD8095982F38
S11302C00E94D80420E030E040E05FE30E948C0507
S11302D06B017C01B301882777FD8095982F0E94DC
S11302E0D80427ED33EB4DE55FE30E948C059B01B9
S11302F0AC01C701B6010E94D5036B017C0160917A
S11303000A0170910B0180910801909109019D836C
S11303108C83882777FD8095982F0E94D80420E04D
S113032030E040E05FE30E948C052B013C01EC814E
S1130330FD81BF01882777FD8095982F0E94D804FE
S113034027ED33EB4DE55FE30E948C059B01AC0187
S1130350C301B2010E94D4032B013C01809104012A
S11303609091050199231CF49195819591094A97DF
S1130370B4F16091040170910501882777FD80959F
S1130380982F0E94D8049B01AC01C501B4010E94BE
S1130390D4034B015C01609104017091050188272D
S11303A077FD8095982F0E94D8049B01AC01C7016A
S11303B0B6010E94D4036B017C0160910401709129
S11303C00501882777FD8095982F0E94D8049B010A
S11303D0AC01C301B2010E94D4032B013C0120E013
S11303E030E0A901C501B4010E943904882314F442
S11303F05C9801C05C9A20E030E0A901C701B60115
S11304000E943904882314F4289801C0289A20E013
S113041030E0A901C301B2010E943904882314F415
S11304205F9801C05F9AE894B7F8E894F7F8E89405
S113043077F820E030E04AEF53E4C501B4010E94AC
S11304408805181644F40F2E812C912CFAEFAF2E48
S1130450F3E4BF2EF02D20E030E04AEF53E4C7016F
S1130460B6010E948805181644F40F2EC12CD12C15
S1130470FAEFEF2EF3E4FF2EF02D20E030E04AEF08
S113048053E4C301B2010E948805181644F40F2EE8
S1130490412C512CFAEF6F2EF3E47F2EF02D20E047
S11304A030E048EC52E4C501B4010E948C0520E020
S11304B030E04AEF53E40E943D040E94A5046556CF
S11304C0E4EBF0E0608320E030E048EC52E4C70164
S11304D0B6010E948C0520E030E04AEF53E40E940C
S11304E03D040E94A504655668BD20E030E048EC58
S11304F052E4C301B2010E948C0520E030E04AEFCF
S113050053E40E943D040E94A504655667BD02C0E1
S11305100E94530080910201909103018D3D95400A
S113052014F0299A01C029989801ADECBCEC0E9402
S1130530EF0596958795969587959C01220F331F15
S1130540220F331F820F931F08171907C9F48B81D9
S11305500E9475002981222311F0273019F43A8171
S113056031953A8389819A81890F898381E0098051
S113057001C0880F0A94EAF78B8301E010E002C0FF
S11305800F5F1F4F1A9926C00E94530029980F2EFF
S1130590FAE0EF2EF02DF12C8FEF0E947500EFEFB3
S11305A0F4E32CE0E150F0402040E1F700C000000B
S11305B080E00E9475003FEF84E39CE0315080406E
S11305C09040E1F700C00000E1E0EE1AF108E11408
S11305D0F10411F710920C01C9CD1F920F920FB6BE
S11305E00F9211242F933F934F935F938F939F9375
S11305F0809184009091850096958795309B12C0D8
S113060020911201211121C01092850010928400C2
S113061010921E0110921D0121E0209312012093DB
S11306200C0113C0309911C020911201213069F4DA
S113063020911D0130911E01AC01421B530B5093BC
S11306400B0140930A0110921201319B0CC02091BE
S1130650110121111BC090931C0180931B0121E007
S11306602093110113C0319911C02091110121303F
S113067069F420911B0130911C01AC01421B530B06
S1130680509309014093080110921101329B0CC050
S11306902091100121111BC090931A01809319011C
S11306A021E02093100113C0329911C02091100150
S11306B0213069F42091190130911A01AC01421BD7
S11306C0530B509307014093060110921001339B82
S11306D00CC020910F0121111BC09093180180932D
S11306E0170121E020930F0113C0339911C0209109
S11306F00F01213069F42091170130911801AC01E8
S1130700421B530B509305014093040110920F01B7
S1130710349B0CC020910E0121111BC09093160133
S11307208093150121E020930E0113C0349911C068
S113073020910E01213069F42091150130911601A8
S1130740AC01421B530B50930301409302011092DE
S11307500E01359B0CC020910D0121111AC09093FC
S113076014018093130181E080930D0112C0359927
S113077010C020910D01213061F4209113013091BA
S11307801401821B930B909301018093000110923A
S11307900D019F918F915F914F913F912F910F90F8
S11307A00FBE0F901F9018955058BB27AA270ED044
S11307B075C166D130F06BD120F031F49F3F11F454
S11307C01EF45BC10EF4E095E7FB51C1E92F77D12C
S11307D080F3BA17620773078407950718F071F45A
S11307E09EF58FC10EF4E0950B2EBA2FA02D0B01B0
S11307F0B90190010C01CA01A0011124FF27591B62
S113080099F0593F50F4503E68F11A16F040A22F67
S1130810232F342F4427585FF3CF469537952795D8
S1130820A795F0405395C9F77EF41F16BA0B620BD7
S1130830730B840BBAF09150A1F0FF0FBB1F661F1E
S1130840771F881FC2F70EC0BA0F621F731F841F61
S113085048F4879577956795B795F7959E3F08F087
S1130860B3CF9395880F08F09927EE0F9795879546
S11308700895D9D008F481E008950CD00FC107D1B0
S113088040F0FED030F021F45F3F19F0F0C0511178
S113089039C1F3C014D198F39923C9F35523B1F3A3
S11308A0951B550BBB27AA2762177307840738F0DB
S11308B09F5F5F4F220F331F441FAA1FA9F333D03A
S11308C00E2E3AF0E0E830D091505040E695001CEE
S11308D0CAF729D0FE2F27D0660F771F881FBB1FAA
S11308E0261737074807AB07B0E809F0BB0B802D84
S11308F0BF01FF2793585F4F2AF09E3F510568F0D0
S1130900B6C000C15F3FECF3983EDCF38695779563
S11309106795B795F7959F5FC9F7880F911D9695D1
S1130920879597F90895E1E0660F771F881FBB1F2D
S1130930621773078407BA0720F0621B730B840BDA
S1130940BA0BEE1F88F7E095089504D06894B111AE
S1130950D9C00895BCD088F09F5790F0B92F99273B
S1130960B751A0F0D1F0660F771F881F991F1AF0B6
S1130970BA95C9F712C0B13081F0C3D0B1E008957F
S1130980C0C0672F782F8827B85F39F0B93FCCF300
S1130990869577956795B395D9F73EF490958095AC
S11309A0709561957F4F8F4F9F4F0895E89409C0CC
S11309B097FB3EF490958095709561957F4F8F4F8E
S11309C09F4F9923A9F0F92F96E9BB279395F695A4
S11309D0879577956795B795F111F8CFFAF4BB0F22
S11309E011F460FF1BC06F5F7F4F8F4F9F4F16C086
S11309F0882311F096E911C0772321F09EE8872F10
S1130A00762F05C0662371F096E8862F70E060E0CB
S1130A102AF09A95660F771F881FDAF7880F969544
S1130A20879597F90895990F0008550FAA0BE0E8E8
S1130A30FEEF16161706E807F907C0F0121613069C
S1130A40E407F50798F0621B730B840B950B39F4DC
S1130A500A2661F0232B242B252B21F408950A2642
S1130A6009F4A140A6958FEF811D811D089597F982
S1130A709F6780E870E060E008959FEF80EC089540
S1130A8000240A9416161706180609060895002469
S1130A900A9412161306140605060895092E0394E3
S1130AA0000C11F4882352F0BB0F40F4BF2B11F457
S1130AB060FF04C06F5F7F4F8F4F9F4F089557FDB6
S1130AC09058440F551F59F05F3F71F04795880FB8
S1130AD097FB991F61F09F3F79F08795089512164F
S1130AE013061406551FF2CF4695F1DF08C01616FB
S1130AF017061806991FF1CF8695710561050894AC
S1130B000895E894BB2766277727CB0197F90895C2
S1130B108ADF08F48FEF08950BD0C0CFB1DF28F03F
S1130B20B6DF18F0952309F0A2CFA7CF1124EACF9E
S1130B30C6DFA0F3959FD1F3950F50E0551F629F38
S1130B40F001729FBB27F00DB11D639FAA27F00D22
S1130B50B11DAA1F649F6627B00DA11D661F829F49
S1130B602227B00DA11D621F739FB00DA11D621F2E
S1130B70839FA00D611D221F749F3327A00D611D4B
S1130B80231F849F600D211D822F762F6A2F11242D
S1130B909F5750408AF0E1F088234AF0EE0FFF1F80
S1130BA0BB1F661F771F881F91505040A9F79E3FB7
S1130BB0510570F05CCFA6CF5F3FECF3983EDCF3B9
S1130BC0869577956795B795F795E7959F5FC1F7F4
S1130BD0FE2B880F911D9695879597F90895A29FEE
S1130BE0B001B39FC001A39F700D811D1124911DFD
S1130BF0B29F700D811D1124911D0895F894FFCFAB
S10F0C00DC05DC05DC05DC05DC05DC059E
S9030000FC
